:100000000C9460180C948A180C948A180C948A1812
:100010000C948A180C948A180C948A180C948A18D8
:100020000C948A180C94F9C60C948A180C948A18AB
:100030000C948A180C94FB460C948A180C948A1819
:100040000C948A180C9438940C940CDA0C948A183A
:100050000C942D390C948A180C948A180C948A18D4
:100060000C948A180C948A180C948A180C948A1888
:100070000C948A180C948A180C948A180C948A1878
:100080000C94E24E0C948A180C948A185AD65DD6B9
:1000900050D654D674D674D661D665D66BD66FD684
:1000A0007BD980D985D98FD9BDD9BDD999D9A1D9C5
:1000B000A9D9B3D9A3E16AE0A1E0DFE1A1E0A1E021
:1000C000A1E0A1E0A1E0A1E0A1E0A1E0A1E0A1E028
:1000D000A1E0A1E0A1E0A1E0A1E0A1E0A1E0A1E018
:1000E000A1E0A1E0A1E0A1E0A1E0A1E0A1E0A1E008
:1000F000D9E1A1E0A1E0A1E0A1E0A1E0A1E0A1E0BF
:10010000A1E0B2E1A1E0A1E0A1E0A1E0A1E0A1E0D5
:10011000A1E0A1E0A1E0A1E0F6E19EE04E414E4960
:100120004E495459494E46CDCCCC3D0AD7233C17B5
:10013000B7D13877CC2B329595E6241FB14F0A0002
:100140000020410000C84200401C4620BCBE4CCAF2
:100150001B0E5AAEC59D74434F4D4D554E494341FC
:1001600054494F4E0044525952554E004552524F39
:10017000525300494E464F004543484F00536C656B
:1001800065702E2E2E00486F6D65205859206669C7
:100190007273740A00486F6D652058592066697241
:1001A000737400205A3A200020593A2000426564B6
:1001B00020583A20004D65736820706F696E742076
:1001C00063616E6E6F74206265207265736F6C760A
:1001D00065640A00436C69636B20746F20726573F9
:1001E000756D652E2E2E004E6F206D6F76652E007C
:1001F000456E642066696C65206C6973740A004200
:100200006567696E2066696C65206C6973740A00A5
:10021000286E6F2066696C652900534420707269EE
:100220006E74696E67206279746520004E6F742069
:100230005344207072696E74696E670A0043757268
:1002400072656E742066696C653A200025697300DA
:1002500025696D20256973002569682025696D2051
:1002600025697300256964202569682025696D204A
:10027000256973002569792025696420256968202E
:1002800025696D20256973005072696E7420746948
:100290006D653A2000780173016C01650157016FAB
:1002A00066660044454255473A004B494C4C45442C
:1002B0002E20004D3131332053006F6B00456E64AA
:1002C00065722D33204F66662E002C20002C2000F6
:1002D000544845524D414C5F50524F544543544948
:1002E0004F4E004155544F5245504F52545F534466
:1002F0005F53544154555300454D455247454E4375
:10030000595F50415253455200434153455F4C4958
:100310004748545F4252494748544E45535300544E
:100320004F47474C455F4C494748545300534F464D
:1003300054574152455F504F574552004255494C22
:10034000445F50455243454E54004C4556454C4938
:100350004E475F44415441005A5F50524F4245005E
:100360004155544F4C4556454C005052494E545FF0
:100370004A4F420050524F47524553530041555443
:100380004F5245504F52545F54454D5000564F4CBC
:10039000554D455452494300454550524F4D005329
:1003A000455249414C5F584F4E5F584F46460046B4
:1003B00049524D574152455F4E414D453A4D61724C
:1003C0006C696E206275676669782D312E312E78E2
:1003D00020284769746875622920534F5552434558
:1003E0005F434F44455F55524C3A68747470733A9A
:1003F0002F2F6769746875622E636F6D2F4D617260
:100400006C696E4669726D776172652F4D61726CB1
:10041000696E2050524F544F434F4C5F56455253D4
:10042000494F4E3A312E30204D414348494E455FA9
:10043000545950453A456E6465722D3320455854E1
:1004400052554445525F434F554E543A312055550D
:1004500049443A63656465326132662D34316132F4
:100460002D343734382D396231322D6335356336CA
:10047000326633363766660A002F2F20004D31343E
:100480003520533C696E6465783E206F7574206F2B
:10049000662072616E67652028302D31290A0020A0
:1004A0005400205200416363656C65726174696F2A
:1004B0006E3A2050005741524E494E4721204C6F12
:1004C00077205A204A65726B206D6179206C6561D6
:1004D0006420746F20756E77616E7465642070613E
:1004E000757365732E0A0020466C6F773A20000002
:1004F000010F150E12FFFFFFFF16170E13FFFFFF70
:10050000FF03021A14FFFFFFFFFFFFFF0C04FFFFB2
:10051000FF01000EFFFFFF0C190DFF18206F75740F
:10052000206F662072616E67650A00536572766F90
:1005300020003A200020536572766F200050726FC1
:100540006265205A204F66667365743A2000206405
:100550003A0020693A0020703A00496E76616C6971
:10056000642065787472756465720A0043290A0014
:1005700061626C656420286D696E2074656D702001
:1005800000436F6C642065787472756465732061D4
:10059000726520004E6F2063617365206C69676827
:1005A000740A004D65736820706F696E7420636112
:1005B0006E6E6F74206265207265736F6C76656411
:1005C0000A004D34323120696E636F727265637454
:1005D00020706172616D6574657220757361676505
:1005E0000A00454550524F4D204F4B0A003F5A20BC
:1005F0006F7574206F662072616E676520282D32DA
:100600003020746F203230290A003A200050726F77
:100610006265205A204F6666736574004163746991
:1006200076652045787472756465723A2000496E6B
:1006300076616C69642065787472756465720A000D
:100640004B494C4C45442E200053544F5050454488
:100650002E20005072696E7465722073746F707012
:1006600065642064756520746F206572726F7273A3
:100670002E2046697820746865206572726F72203A
:10068000616E6420757365204D39393920746F208F
:10069000726573746172742E202854656D70657272
:1006A00061747572652069732072657365742E209C
:1006B0005365742069742061667465722072657375
:1006C00074617274696E67290A004E6F2043686511
:1006D000636B73756D2077697468206C696E652033
:1006E0006E756D6265722C204C617374204C696E5E
:1006F000653A20004E6F20436865636B73756D200B
:1007000077697468206C696E65206E756D626572BC
:100710002C204C617374204C696E653A200063682C
:1007200065636B73756D206D69736D617463682C9F
:10073000204C617374204C696E653A20004C696EE0
:1007400065204E756D626572206973206E6F74202E
:100750004C617374204C696E65204E756D626572D4
:100760002B312C204C617374204C696E653A20004B
:100770004D313130004D3331005344207265616496
:10078000206572726F720A00446F6E652070726924
:100790006E74696E672066696C650A0020496E7622
:1007A000616C6964206578747275646572200000FC
:1007B000000000000000000000000000006B43008B
:1007C000006B4300007A436F6B0020746F6F206CE6
:1007D0006F6E6720657874727573696F6E207072C2
:1007E0006576656E7465640A0020636F6C642065CD
:1007F0007874727573696F6E2070726576656E7449
:1008000065640A00627573793A2070617573656476
:1008100020666F7220696E7075740A006275737954
:100820003A2070617573656420666F722075736518
:10083000720A00627573793A2070726F6365737320
:10084000696E670A004B494C4C45442E20004B49C9
:100850004C4C2063617573656420627920746F6FFE
:10086000206D75636820696E6163746976652074B4
:10087000696D65202D2063757272656E7420636FDB
:100880006D6D616E643A2000506C65617365207215
:1008900065736574005052494E5445522048414C8E
:1008A000544544005072696E7465722068616C74BE
:1008B00065642E206B696C6C28292063616C6C6503
:1008C00064210A00656E7175657565696E67202221
:1008D000000000000000000000000000000000A078
:1008E000410000A0410000804000000000576172FC
:1008F0006E696E673A20486F6D696E672042756D4C
:10090000702044697669736F72203C20310A0002BE
:1009100002040000A0400000A040000000400000D1
:100920006B4300006B4300007A43FFFFFF24F4D4C5
:100930003050C38E20C2A24017828B7011127A9160
:100940000D816CD90AA861E108C758660761514357
:10095000061E4B5D05C145A7041A411104093D98C7
:1009600003713931034036DB0265339102D43054D0
:1009700002802E1D02632CEE01752AC501B028A04D
:1009800001102781018F2564012B244B01E02234C3
:1009900001AC211F018D200D01801FFC00841EED84
:1009A00000971DDF00B81CD200E61BC600201BBC50
:1009B00000641AB200B219A8000A19A0006A1899B6
:1009C00000D117910040178B00B516840031167EB8
:1009D00000B31579003A157300C7146F0058146AF4
:1009E00000EE1366008813630025135E00C7125BD8
:1009F000006C12570015125400C111510070114FB4
:100A00000021114B00D61049008D104700461044BC
:100A10000002104200C00F4000800F3E00420F3C19
:100A200000060F3B00CB0E3800930E37005C0E35EE
:100A300000270E3400F30D3200C10D3100900D304F
:100A400000600D2E00320D2D00050D2C00D90C2B51
:100A500000AE0C2900850C29005C0C2700350C2702
:100A6000000E0C2600E80B2400C40B2400A00B236E
:100A7000007D0B23005A0B2100390B2100180B209D
:100A800000F80A1F00D90A1E00BB0A1E009D0A1D9D
:100A900000800A1D00630A1C00470A1B002C0A1B69
:100AA00000110A1A00F7091A00DD091900C4091912
:100AB00000AB091900920917007B09180063091798
:100AC000004C09160036091600200916000A0915FF
:100AD00000F5081500E0081400CC081400B808144C
:100AE00000A4081400900813007D0812006B08137E
:100AF000005808120046081200340811002308119B
:100B0000001208110001081100F0071000E00710A2
:100B100000D0071000C0071000B0070F00A1071099
:100B20000091070E0083070F0074070F0065070E82
:100B30000057070E0049070E003B070D002E070E59
:100B40000020070D0013070D0006070D00F9060C25
:100B500000ED060D00E0060C00D4060C00C8060CE3
:100B600000BC060C00B0060C00A4060B0099060C95
:100B7000008D060B0082060B0077060B006C060B3F
:100B80000061060A0057060B004C060A0042060ADE
:100B90000038060A002E060A0024060A001A060A71
:100BA000001006090007060A00FD050900F4050902
:100BB00000EB050900E2050900D9050900D0050987
:100BC00000C7050900BE050900B5050800AD050808
:100BD00000A50509009C050800940508008C05087F
:100BE00000840508007C050800740508006C0507F2
:100BF00000650508005D050700560508004E05075D
:100C000000470507004005080038050700310507C3
:100C1000002A050700230507001C05060016050726
:100C2000000F0507000805060002050700FB040683
:100C300000F5040700EE040600E8040600E20407DD
:100C400000DB040600D5040600CF040600C9040634
:100C500000C3040600BD040600B7040600B1040585
:100C600000AC040600A6040600A00405009B0406D0
:100C70000095040500900406008A0405008504051B
:100C800000800406007A0405007504050070040560
:100C9000006B04050066040500610405005C0405A2
:100CA0000057040500520405004D040500480405E2
:100CB00000430405003E0404003A04050035040521
:100CC00000300404002C040500270404002304055C
:100CD000001E0404001A0404001604050011040494
:100CE000000D0404000904050004040400000404C9
:100CF00000FC030400F8030400F4030400F0030400
:100D000000EC030400E8030400E4030400E003042F
:100D100000DC030400D8030400D4030400D003045F
:100D200000CC030400C8030300C503030024F4043B
:100D3000D9201BC40C5C0E9804C4095F02650771BE
:100D400001F405F900FB04B30048048700C10369FE
:100D5000005803550003034500BE023A00840231E7
:100D60000053022A002902250004022000E4011C8D
:100D700000C8011900AF0117009801140084011385
:100D800000710110006101100051010E0043010DBE
:100D90000036010B002B010B0020010B001501098F
:100DA000000C01090003010800FB000800F3000823
:100DB00000EB000700E4000600DE000600D8000695
:100DC00000D2000600CC000500C7000500C20005E7
:100DD00000BD000400B9000400B5000400B1000427
:100DE00000AD000400A9000400A5000300A2000358
:100DF000009F0004009B0003009800030095000280
:100E00000093000300900003008D0002008B00039C
:100E100000880002008600020084000300810002B6
:100E2000007F0002007D0002007B000200790002CA
:100E300000770001007600020074000200720001D9
:100E400000710002006F0002006D0001006C0002E2
:100E5000006A0001006900020067000100660001ED
:100E600000650001006400020062000100610001F1
:100E700000600001005F0002005D0001005C0001F5
:100E8000005B0001005A00010059000100580001F8
:100E900000570001005600010055000100540001F8
:100EA00000530000005300010052000100510001F6
:100EB00000500001004F0001004E0000004E0001F4
:100EC000004D0001004C0001004B0000004B0001F0
:100ED000004A0001004900010048000000480001EC
:100EE00000470001004600000046000100450000E8
:100EF00000450001004400010043000000430001E0
:100F000000420000004200010041000000410001D9
:100F100000400001003F0000003F0001003E0000D3
:100F2000003E0001003D0000003D0001003C0000CB
:100F3000003C0000003C0001003B0000003B0001C1
:100F4000003A0000003A00010039000000390001B9
:100F500000380000003800000038000100370000B1
:100F600000370001003600000036000000360001A6
:100F7000003500000035000000350001003400009D
:100F80000034000000340001003300000033000092
:100F90000033000100320000003200000032000186
:100FA000003100000031000000310001003000007D
:100FB0000030000000300001002F0000002F000072
:100FC000002F0000002F0001002E0000002E000066
:100FD000002E0001002D0000002D0000002D00005B
:100FE000002D0001002C0000002C0000002C00004F
:100FF000002C0001002B0000002B0000002B000043
:10100000002B0001002A0000002A0000002A000036
:10101000002A00010029000000290000002900002A
:10102000002900000029000100280000002800001D
:101030000028000000280000002800010027000010
:101040000027000000270000002700000027000103
:1010500000260000002600000026000000260000F8
:1010600000260001002500000025000000250000EA
:1010700000250000002500000025000100240000DC
:1010800000240000002400000024000000240001CF
:1010900000230000002300000023000000230000C4
:1010A00000230000002300000023000100220000B4
:1010B00000220000002200000022000000220000A8
:1010C000002200010021000000210000002100009A
:1010D000002100000021000000210000002100018B
:1010E0000020000000200000002000000020000080
:1010F000002000000020000000200000002000016F
:10110000001F0000001F0000001F0000001F000063
:10111000001F0000001F0000001F0001001E000053
:10112000001E0000001E0000001E0000000437002A
:10113000001E290000511B0000581000001009007B
:1011400000CC0400007802000041010000626564E8
:101150000A002C2073797374656D2073746F70703E
:10116000656421204865617465725F49443A2000D6
:1011700050726F6265205A204F6666736574004333
:101180006F6E74726F6C0046696C2E204469612E1C
:101190000046696C2E204469612E004F6666004F40
:1011A0006E20004520696E206D6D3300436F6E74B4
:1011B000726F6C0043616E6E6F7420656E74657241
:1011C000207375626469723A2000022E2E0001526B
:1011D000656672657368004D61696E004D617820C7
:1011E00054656D703A20313235004D696E2054657A
:1011F0006D703A203500544265643A4550434F5370
:10120000203130304B004D61782054656D703A20AC
:10121000323735004D696E2054656D703A203500C7
:1012200054303A204550434F53203130304B00501A
:1012300053553A2047656E657269630050726F744A
:101240006F636F6C3A20312E3000426175643A2032
:10125000313135323030004D656C7A692028437267
:1012600065616C697479290042696C696E656172A7
:10127000204C6576656C696E67004578747275649C
:101280006572733A203100687474703A2F2F6D6163
:10129000726C696E66772E6F726700456E64657258
:1012A0002D3300323031382D30372D333100627517
:1012B000676669782D312E312E78004D61726C6928
:1012C0006E00546865726D6973746F727300426F5B
:1012D00061726420496E666F005072696E74657247
:1012E00020496E666F004D61696E00290A00206218
:1012F000797465733B20637263200053657474696D
:101300006E67732053746F726564202800290A0089
:101310002062797465733B206372632000207374CC
:101320006F7265642073657474696E67732072658B
:1013300074726965766564202800202863616C6397
:10134000756C6174656429210A0020213D200045E7
:101350004550524F4D20435243206D69736D617467
:101360006368202D202873746F7265642920002023
:1013700053697A653A2000496E6465783A20002006
:101380004D61726C696E3D563536290A0028454517
:1013900050524F4D3D00454550524F4D207665729D
:1013A00073696F6E206D69736D61746368200048A6
:1013B000617264636F6465642044656661756C7412
:1013C0002053657474696E6773204C6F6164656443
:1013D0000A00F4010000F40100006400000088131A
:1013E00000000000FA430000FA430000A0400000A3
:1013F000C8410000A0420000A0420000C843000015
:10140000BA4220746F6F206C6F6E672065787472BB
:101410007573696F6E2070726576656E7465640AA7
:101420000020636F6C6420657874727573696F6EE9
:101430002070726576656E7465640A00436D643A67
:101440002053746F7700436D643A204465706C6F6D
:101450007900436D643A2053656C662D546573744E
:1014600000436D643A2053572D4D6F646500436D02
:10147000643A205265736574004D61696E00507264
:10148000696E742061626F7274656400496E69747C
:101490002E2053442063617264004D3231004E6F40
:1014A0002053442063617264004368616E67652065
:1014B00053442063617264004D3231005072696E92
:1014C000742066726F6D2053440053746F702070E7
:1014D00072696E7400526573756D65207072696E05
:1014E000740041626F7574205072696E7465720089
:1014F0005061757365207072696E7400436F6E740D
:10150000726F6C00507265706172650054756E6523
:1015100000496E666F2073637265656E000E000E83
:10152000000E000E000E000E000E000E007FC03FE9
:10153000801F000E00040004000E001F003F807F8B
:10154000C00E000E000E000E000E000E000E000E6B
:101550000003F8000FFE001E0F003807003803805C
:10156000700380700FE07007C0700380700100701E
:1015700000003800003807001E0F000FFE0003F8BF
:101580000000FE0003FF800783C00E01C00E00E0D4
:101590001C00E07F00E03E00E01C00E00800E000EE
:1015A00000E00001C00E01C00F078007FF0001FC32
:1015B00000FFFFFF7F80FFC0FFC0FFC07F807F80F4
:1015C000FFC0FFC0FFC03F001E000C0050726F62E2
:1015D00065205A204F66667365740050726F6265AD
:1015E000205A204F666673657400466C6F7700461C
:1015F0006C6F770046616E207370656564004661AC
:101600006E20737065656400426564004265640025
:101610004E6F7A7A6C65004E6F7A7A6C6500537003
:10162000656564005370656564004D61696E0050C6
:1016300072656865617420504C4120456E640050AD
:1016400072656865617420504C41204265640050A9
:1016500072656865617420504C410050726570611C
:10166000726500507265686561742041425320457F
:101670006E64005072656865617420414253204277
:101680006564005072656865617420414253005082
:101690007265706172650053746F72652073657452
:1016A00074696E6773004C6F61642073657474694C
:1016B0006E67730050726F6265205A204F666673C2
:1016C0006574004661646520486569676874004612
:1016D00061646520486569676874004F6666004FFD
:1016E0006E2000426564204C6576656C696E67000B
:1016F0004C6576656C20626564004732380A473273
:101700003900473239004175746F20686F6D65008C
:10171000473238005072657061726500436D643AFB
:10172000205265736574004D32383020503020539C
:1017300031363000436D643A2053656C662D546534
:101740007374004D32383020503020533132300025
:10175000507265686561742041425300507265683B
:1017600065617420504C4100436F6F6C646F776EFD
:101770000044697361626C65207374657070657292
:1017800073004D383400426564204C6576656C69A1
:101790006E67004175746F20686F6D650047323861
:1017A000004D6F76652061786973004D61696E0048
:1017B0004D6F76652058004D6F76652059004D6F4E
:1017C0007665205A004578747275646572004D6FB5
:1017D000766520302E316D6D004D6F766520316D50
:1017E0006D004D6F76652031306D6D004D6F766503
:1017F0002061786973004578747275646572004D74
:101800006F7665205A004D6F76652059004D6F76D2
:101810006520580000060900FE00000000000109D4
:101820000008FE000005080806000040F0C888888F
:10183000987810050808060000C0F888888888880D
:10184000F80505050600012030F8302005080806D7
:1018500000002070F820202020E00509090600FF84
:101860002070A8A8B8888870200509090600FFE044
:1018700080C0B0A8283028280509090600FFF8A86C
:101880008888888888A8F8050A0A0600FE20505033
:10189000505088A8A8887003030306000340A040A6
:1018A00025753A2530327500253032753A253032AB
:1018B000750025756420253032753A253032750063
:1018C000202020202020005A005900202020200025
:1018D0005800092000000000000000000000000087
:1018E00000003FFFF00000000000000000000000CA
:1018F0000000380070000000000000000000000040
:10190000000030FC3000000000000000000000007B
:10191000000020FC1000000000000000000000009B
:10192000000020781000000000000000000000000F
:101930000000203010000000000000000000000047
:1019400000002C00D0F80180000C1FE000000820EF
:1019500080002E31D048008000123FF000000410BB
:1019600040002F7BD043C38CD0023FF00000041016
:1019700040002F7BD071249267CC3FF000000820FC
:1019800080002E31D041249E40021FE00000104113
:1019900000002C00D049249040121FE0000020825B
:1019A0000000203010FBB3CEE00C3FF0000020829E
:1019B000000020781000000000003FF000001041FF
:1019C000000020FC1000000000003FF00000082094
:1019D000800030FC3000000000000FC0000000005C
:1019E0000000380070000000000007800000FFFFCA
:1019F000C0003FFFF0000000000003000000FFFFF8
:101A0000C000000000000000000000000000000016
:101A100000003FFFF0000000000000000000000098
:101A2000000038007000000000000000000000000E
:101A300000003387300000000000000000000000BC
:101A40000000278790000000000000000000000058
:101A500000002F87D0000000000000000000000000
:101A600000002F87D00000000000000000000000F0
:101A700000002F03D0F80180000C1FE000000820B8
:101A8000800020301048008000123FF00000041059
:101A9000400020781043C38CD0023FF000000410B7
:101AA000400020781071249267CC3FF0000008209D
:101AB000800020301041249E40021FE000001041B1
:101AC00000002F03D049249040121FE00000208224
:101AD00000002F87D0FBB3CEE00C3FF00000208247
:101AE00000002F87D000000000003FF000001041F0
:101AF000000027879000000000003FF00000082051
:101B0000800033873000000000000FC0000000009C
:101B10000000380070000000000007800000FFFF98
:101B2000C0003FFFF0000000000003000000FFFFC6
:101B3000C000000000456E6465722D33205265615F
:101B400064792E005072696E74696E672E2E2E00B5
:101B50005072696E742070617573656400577269A4
:101B600074696E6720746F2066696C653A20006F37
:101B700070656E206661696C65642C2046696C65D1
:101B80003A20006F70656E206661696C65642C2078
:101B900046696C653A200046696C652073656C6522
:101BA000637465640A002053697A653A20004669C7
:101BB0006C65206F70656E65643A20002066696C04
:101BC000653A2000646F696E67006672657368002D
:101BD0004E6F772000454E4420535542524F555486
:101BE000494E450A002220706F73002220706172F6
:101BF000656E743A2200535542524F5554494E4532
:101C00002043414C4C207461726765743A22004B4A
:101C1000494C4C45442E2000747279696E672074DB
:101C20006F2063616C6C207375622D67636F6465F0
:101C30002066696C6573207769746820746F6F2003
:101C40006D616E79206C6576656C732E204D415800
:101C5000206C6576656C2069733A004572726F720C
:101C60003A006F70656E206661696C65642C204671
:101C7000696C653A200043616E6E6F74206F706509
:101C80006E2073756264697220006563686F3A0044
:101C90004265642068656174696E67206661696C7D
:101CA00065640048656174696E67206661696C658A
:101CB000640045312048656174696E67206661691A
:101CC0006C65640048656174696E67206661696C63
:101CD00065640070012C0190012701B0012201C050
:101CE000011D01F00118011002130130020E016004
:101CF00002090190020401C002FF000003FA004043
:101D000003F5008003F000D003EB002004E6007030
:101D100004E100E004DC004005D700C005D200402B
:101D200006CD00D006C8008007C3003008BE00F012
:101D300008B900C009B400B00AAF00B00BAA00D0C7
:101D40000CA500000EA000500F9B00C01096005084
:101D500012910000148C00C0158700B0178200B0EB
:101D6000197D00D01B7800001E730040206E00908B
:101D7000226900F024640040275F0090295A00E0A7
:101D80002B5500102E500020304B0010324600E042
:101D900033410090353C001037370070383200A0D6
:101DA000392D00B03A2800A03B2300603C1E0010F3
:101DB0003D1900903D1400103E0F00703E0A00C017
:101DC0003E0500003F0000403FFBFF803FF6FFC0A4
:101DD0003FF1FF453120544845524D414C2052556A
:101DE0004E415741590042454420544845524D41C7
:101DF0004C2052554E4157415900546865726D61EF
:101E00006C2052756E6177617900453120457272A0
:101E10003A204D415854454D50004572723A204D7C
:101E2000415854454D5020424544004D4158544579
:101E30004D50207472696767657265640045312092
:101E40004572723A204D494E54454D5000457272CC
:101E50003A204D494E54454D5020424544004D498D
:101E60004E54454D50207472696767657265640011
:101E70004D383420582059205A204500202F00206A
:101E800042403A0020403A0000060900FE07019255
:101E90000321207FFF07FF07FF000000060000016D
:101EA000070706020080808080800080030202060F
:101EB0000105A0A00507070600005050F850F85093
:101EC000500507070600002078A07028F0200507BD
:101ED00007060000C0C81020409818050707060034
:101EE000006090A040A89068020303060104C0406F
:101EF0008003070706010020408080804020030700
:101F000007060100804020202040800505050600CE
:101F10000120A870A8200505050600012020F82052
:101F2000200203030602FFC04080050101060003F2
:101F3000F8020202060200C0C005050506000108FD
:101F40001020408005070706000070888888888870
:101F50007003070706010040C040404040E005070D
:101F600007060000708808708080F80507070600E3
:101F700000F81020100808F00507070600001030D0
:101F80005090F81010050707060000F880F00808C8
:101F90008870050707060000708080F0888870054B
:101FA0000707060000F80810202020200507070674
:101FB0000000708888708888700507070600007028
:101FC000888878080870020505060200C0C000C0B5
:101FD000C00206060602FFC0C000C040800407071A
:101FE0000600001020408040201005030306000278
:101FF000F800F80407070601008040201020408008
:102000000507070600007088081020002005070754
:1020100006000070880868A8A87005070706000079
:10202000708888F8888888050707060000F0888887
:10203000F08888F005070706000070888080808897
:1020400070050707060000F08888888888F0050773
:1020500007060000F88080F08080F805070706007A
:1020600000F88080F08080800507070600007088F7
:1020700080B8888870050707060000888888F88877
:1020800088880107070602008080808080808005A4
:1020900007070600003810101010906005070706AB
:1020A00000008890A0C0A090880507070600008067
:1020B0008080808080F805070706000088D8A888FF
:1020C0008888880507070600008888C8A898888837
:1020D000050707060000708888888888700507074C
:1020E000060000F08888F080808005070706000061
:1020F00070888888A89068050707060000F088881F
:10210000F0A0908805070706000078808070080816
:10211000F0050707060000F82020202020200507F2
:1021200007060000888888888888700507070600E9
:10213000008888888888502005070706000088885E
:10214000888888A850050707060000888850205016
:102150008888050707060000888888502020200509
:102160000707060000F80810204080F8030707065C
:102170000100E08080808080E00505050600018088
:1021800040201008030707060100E020202020203F
:10219000E005030306000420508805010106000045
:1021A000F8020202060205804005050506000070DF
:1021B000087888780507070600008080B0C88888FE
:1021C000F005050506000070808088700507070689
:1021D00000000808689888887805050506000070E2
:1021E00088F880700507070600003048E04040404E
:1021F000400506060600FF70888878087005070706
:102200000600008080B0C8888888010707060200A1
:10221000800080808080800308080601FF20002065
:10222000202020A040040707060000808090A0C066
:10223000A090030707060100C04040404040E00571
:102240000505060000D0A8A8A8A8050505060000F9
:10225000B0C88888880505050600007088888870E1
:102260000506060600FFF08888F080800506060651
:1022700000FF788888780808050505060000B0C8C2
:1022800080808005050506000070807008F0040756
:10229000070600004040E0404040300505050600CC
:1022A0000088888898680505050600008888885099
:1022B000200505050600008888A8A8500505050624
:1022C000000088502050880506060600FF88888890
:1022D000780870050505060000F8102040F803078F
:1022E0000706010020404080404020010707060209
:1022F0000080808080808080030707060100804086
:102300004020404080050202060002689000000064
:102310000600004578747275646572004D6F7665CD
:10232000205A004D6F76652059004D6F7665205814
:102330000050726570617265004C6F616420736556
:102340007474696E677300526573746F726520668A
:1023500061696C736166650053746F7265207365A3
:102360007474696E677300424C546F7563680046FD
:10237000696C616D656E74004D6F74696F6E0054A9
:10238000656D7065726174757265004D61696E008E
:102390004D333033205531204525692053256900C0
:1023A000504944204175746F74756E6500504944FE
:1023B000204175746F74756E65005049442D44005A
:1023C0005049442D44005049442D49005049442D62
:1023D00049005049442D50005049442D50002008D8
:1023E0002046616374002008204661637400200861
:1023F000204D6178002008204D6178002008204D94
:10240000696E002008204D696E004F6666004F6EB1
:1024100020004175746F74656D700046616E2073A5
:10242000706565640046616E207370656564004286
:10243000656400426564004E6F7A7A6C65004E6F89
:102440007A7A6C6500436F6E74726F6C0042696CCF
:10245000696E656172204C6576656C696E672047B0
:102460007269643A0A00202844525952554E290094
:10247000473239204175746F20426564204C65767F
:10248000656C696E67003F20284C2C522C462C420C
:1024900029206F7574206F6620626F756E64732ECD
:1024A0000A003F2856296572626F7365206C657655
:1024B000656C20697320696D706C61757369626CFD
:1024C000652028302D34292E0A00426164205A20CC
:1024D00076616C75650A004E6F2062696C696E6585
:1024E000617220677269640A0046696C65206465E0
:1024F0006C657465643A0044656C6574696F6E2040
:102500006661696C65642C2046696C653A200050F0
:10251000726F7465637465642050696E0A00205799
:102520003A004520436F6F6C696E672E2E2E004572
:102530002048656174696E672E2E2E003A0A0020CD
:10254000286D6D290020204D383531205A005A2D34
:1025500050726F6265204F66667365740020440098
:1025600020490020204D3330312050005049442074
:1025700073657474696E67733A0A002046002042DE
:102580000020480020204D3134352053004D617427
:10259000657269616C206865617475702070617224
:1025A000616D65746572733A0A00205A00204A0012
:1025B00020204732392057204900205A0020204D42
:1025C0003432302053004175746F20426564204CD2
:1025D0006576656C696E673A0A00205A00205900DA
:1025E00020204D323036205800486F6D65206F66D0
:1025F000667365743A0A00204500205A002059008D
:1026000020580020540020530020204D3230352027
:10261000510020453C6D61785F655F6A65726B3E75
:102620000020583C6D61785F785F6A65726B3E2070
:10263000593C6D61785F795F6A65726B3E205A3CE8
:102640006D61785F7A5F6A65726B3E0041647661A6
:102650006E6365643A20513C6D696E5F7365676DAA
:10266000656E745F74696D655F75733E20533C6D74
:10267000696E5F66656564726174653E20543C6D89
:10268000696E5F74726176656C5F666565647261C0
:1026900074653E0020540020520020204D3230341A
:1026A000205000416363656C65726174696F6E20D0
:1026B00028756E6974732F7332293A20503C7072FA
:1026C000696E745F616363656C3E20523C72657431
:1026D000726163745F616363656C3E20543C747225
:1026E0006176656C5F616363656C3E0A002045003E
:1026F000205A0020590020204D3230312058004D02
:102700006178696D756D20416363656C6572617494
:10271000696F6E2028756E6974732F7332293A0AB7
:1027200000204500205A0020590020204D3230332F
:102730002058004D6178696D756D2066656564721D
:10274000617465732028756E6974732F73293A0A52
:1027500000204500205A0020590020204D39322009
:10276000580053746570732070657220756E6974BB
:102770003A0A0020204D3230302044300A00202018
:102780004D3230302044002044697361626C6564CE
:102790000A0046696C616D656E74207365747469B6
:1027A0006E67733A0020204D3134392043203B209E
:1027B000556E69747320696E2043656C7369757317
:1027C0000A002020473231202020203B00486F6D36
:1027D000696E67206661696C6564005452494747B9
:1027E00045524544006F70656E003A20007A5F6D77
:1027F000696E00795F6D696E00785F6D696E005279
:1028000065706F7274696E6720656E6473746F7043
:10281000207374617475730A0020573A004265642E
:1028200020636F6F6C696E672E2E2E0042656420E8
:1028300068656174696E672E2E2E00205A3A00205A
:10284000593A0020436F756E7420583A0020453A7B
:1028500000205A3A0020593A00583A003A004361A1
:10286000703A00205A00205900580020204D61780D
:102870003A2000205A00205900580020204D696E4F
:102880003A20004F6E20004F666600536F6674203A
:10289000656E6473746F70733A20002364656669B3
:1028A0006E652044454641554C545F4B64200023DF
:1028B000646566696E652044454641554C545F4BDE
:1028C00069200023646566696E652044454641556C
:1028D0004C545F4B702000504944204175746F7414
:1028E000756E652066696E69736865642120507530
:1028F0007420746865206C617374204B702C204BBD
:102900006920616E64204B6420636F6E7374616E26
:1029100074732066726F6D2062656C6F7720696ECC
:10292000746F20436F6E66696775726174696F6E4C
:102930002E680A00504944204175746F74756E65A5
:10294000206661696C6564212074696D656F7574BA
:102950000A00453120544845524D414C2052554EB5
:102960004157415900546865726D616C2052756E13
:10297000617761790045312048656174696E67202F
:102980006661696C65640048656174696E6720669C
:1029900061696C656400504944204175746F7475B9
:1029A0006E65206661696C6564212054656D706593
:1029B00072617475726520746F6F20686967680A48
:1029C00000204B643A2000204B693A2000204B70D5
:1029D0003A20000A20436C617373696320504944B4
:1029E000200A002054753A2000204B753A20002020
:1029F0006D61783A2000206D696E3A200020643ABB
:102A0000200020626961733A2000504944204175DA
:102A1000746F74756E65206661696C6564212054FD
:102A2000656D706572617475726520746F6F206872
:102A30006967680A00504944204175746F74756E67
:102A4000652073746172740A0050494420417574A2
:102A50006F74756E65206661696C656421204261E2
:102A600064206578747275646572206E756D626538
:102A7000720A004F66660A0046616465204865690F
:102A80006768742000426564204C6576656C696EE9
:102A90006720004661696C656420746F20656E6113
:102AA000626C6520426564204C6576656C696E6772
:102AB0000A004F666673657473206170706C696597
:102AC00064004572723A20546F6F20666172210073
:102AD000546F6F206661722066726F6D207265663A
:102AE0006572656E636520706F696E740A0002FF1F
:102AF000FFFFFFEFFFFFFFFFFFFFFFFFFFFFEFEF16
:102B0000FFFFFFFFFFFFFFFFFFE7DFFFFFFFFFFF0D
:102B1000FFFFFFFFE7DFFFFFFFFFFFFFFFFFFFE319
:102B2000DFFFFFFFFFFFFFFFFFFFF3CFFFFFFFFF11
:102B3000FFFFFFFFE1E1CFFFFFFFFFFFFFFE780098
:102B40000003DDFFFFFFFFFEFF807E0001EEFFFFC1
:102B5000FFFFFE7DCFFC0000F77FFFFFFFFF8E062B
:102B60000000007BBFFFFFFFFFC0000000007DDF13
:102B7000FFFFFFFFFC01FE00003EE7FFFFFFFFFF3E
:102B8000FFFC00031F73FFFFFFFFFFFFF800018F33
:102B900081FFFFFFFFFFFFE0000083F9FFFFFFFF62
:102BA000FFFF00FC0000F0FFFFFFFFFFE00FFFC092
:102BB0000000FFFFFFFFFE03FFFFC00000FFFFFF5D
:102BC000FFFFFFFFF9000000FFFFFFFFFFFFFFFC1B
:102BD0000007C0FFFFFFFFFFFFFFFF0007E0FFFF51
:102BE000FFFFFFFFFFFFE007F1FFFFFFFFFFFFFF1A
:102BF000FFFC07F9FFFFFFFFFFFFFFFFFF03F9FFE8
:102C0000FFFFFFFFFFFFFFFF83F9FFFFFFFFFFFF56
:102C1000FFFFFFC3FFFFFFFFFFFFFFFFFFFFE1FF1E
:102C2000FFFFFFFFFFFFFFFFFFF0BFFFFFFFFFFF03
:102C3000FFFFFFFBF83FFFFFFFFFFFFFFFFFF9F87C
:102C40003FFFFFFFFFFFFFFFFF7EF0FFFFFFFFFFE4
:102C5000FFFFFFFF8E03FFFFFFFFFFFFFFFFFFE010
:102C60001FFFFFFFFFFFFFFFFFFFFFFFFFFFFFFF54
:102C7000FFFFFFFFFFFFFFFFFFFFFFFFFFFFFFFF64
:102C8000FFFF7FFFFFFFFF00007FFFFFF87FFFFFD9
:102C9000FFFF80007FFFFFE07FFFFFFFFFC3FCFF20
:102CA000FFFFF8FFFFFFFFFFC3FCFFFFFFF8FFFF81
:102CB000FFFFFF87FDFFFFFFF1FFFFFFFFFF87FF24
:102CC000FFFFFFF1FFFFFFFFFF0FE7F30FFC23FC08
:102CD0003FFFFFFF0FEF8007F003F01E007FFE1F96
:102CE000CF8187C787C70C007FFE001FC7C78FC76C
:102CF0009F0F0CFFFE001F878F1F8F1F0F1FFFFCF2
:102D00003F9F8F8F1F8E001E3FFFFC7F3F0F1E3F98
:102D10001E3FFE3FFFF87FFF1F1C3F1C7FFC7FFF15
:102D2000F8FFFF1E1C7E1C7FFC7FFFF0FFCE3E3CA9
:102D30007E3C7FB8FFFFF0FF9E3C387C387E78FFFA
:102D4000FFE1FF3C7C787C783CF1FFFFE1F83878CC
:102D500078101801F1FFFF000060203C007C078024
:102D60007FFFFFFFFFFFFE1FFE1FFFFFFF1FFFFF95
:102D7000FFFFFFFF600000000001FF4000000000B7
:102D800000FF8000000000007F83CF00000C303F78
:102D900087FF80000C301F867980000C000F8C307C
:102DA000C7838C30E78C30CFC7CC31F38C30DCEC70
:102DB000EC33B98C30D86C6C33198C30D06C0C334C
:102DC000198C30D86C0C33198C30DC6C0E3B198CA0
:102DD00030CF7C079F198C30C77C038F19400000CF
:102DE00000000002600000000000061FFFFFFFFF60
:102DF000FFF82020506C616E6E65724275666665E4
:102E00007242797465733A20002046726565204DE0
:102E1000656D6F72793A2000436F6D70696C6564FF
:102E20003A2053657020203520323031390A002095
:102E30007C20417574686F723A20287468697369E0
:102E4000736B65697468622C20456E6465722D33FE
:102E5000290A00323031382D30372D333100204CE3
:102E600061737420557064617465643A2000627502
:102E7000676669782D312E312E780A004D61726CAB
:102E8000696E0020536F66747761726520526573B6
:102E900065740A00205761746368646F6720526527
:102EA0007365740A002042726F776E206F7574200C
:102EB00052657365740A002045787465726E616CA2
:102EC0002052657365740A00506F77657255700AF9
:102ED0000073746172740A006175746F25692E67DE
:102EE000006572726F722077726974696E67207400
:102EF0006F2066696C650A00456E6473746F707349
:102F000020256320256320256320256300205A3A6D
:102F10000020593A0020583A00656E6473746F704F
:102F200073206869743A2000446F6E65207361767F
:102F3000696E672066696C652E0A004D3239007C27
:102F40003C3E5E2B3D3F2F5B5D3B2C2A225C0050BC
:102F5000726F62696E67206661696C65640A005011
:102F6000726F62696E67206661696C656400205AE1
:102F70003A200020593A200042656420583A200047
:102F800053442063617264206F6B0A006F70656E3A
:102F9000526F6F74206661696C65640A00766F6CAD
:102FA000756D652E696E6974206661696C65640A69
:102FB00000534420696E6974206661696C0A004898
:102FC0006F6D652025732573257320666972737490
:102FD000002066697273740A005A0059005800484C
:102FE0006F6D65200000002100240027002A0000EA
:102FF000002200250028002B0000002000230026CE
:103000000029000202020202020202040404040473
:103010000404040303030303030303010101010187
:10302000010101010204081020408001020408107F
:1030300020408001020408102040808040201008B9
:10304000040201000000010200090A00000000045F
:10305000030807000000000000000000000000005E
:103060000000004D3234004D323320257300556E80
:103070006B6E6F776E20636F6D6D616E643A2022A8
:10308000004572726F722077726974696E6720747E
:103090006F20454550524F4D210A00454550524F33
:1030A0004D206461746173697A65206572726F7214
:1030B0002E0A00526573656E643A20006BE64AE69C
:1030C00011241FBECFEFD0E4DEBFCDBF12E0A0E0E1
:1030D000B1E0EEE4F5EF01E00BBF02C007900D9206
:1030E000A238B107D9F723E1A2E8B2E001C01D92EE
:1030F000A43EB207E1F718E1CFE5D8E104C021977B
:10310000FE010E9406FACE35D107C9F70E94E3E816
:103110000C949AFA0C9400002F923F924F925F9277
:103120006F927F928F929F92AF92BF92CF92DF92D7
:10313000EF92FF920F931F93CF93DF93CDB7DEB73C
:10314000E0970FB6F894DEBF0FBECDBF21E020930D
:103150001903809127138D3409F481C3843511F448
:103160000C94362A873411F00C94822A809125130E
:10317000909126138D31910509F408C164F48430CF
:10318000910509F4AEC01CF4029768F164C34C9732
:1031900009F4E5C060C38A35910509F49DC244F481
:1031A0008E31910509F4F6C08A9709F4C8C153C35A
:1031B0008B35910509F494C28C35910509F04BC308
:1031C00028E6222E21E0322E37E2E32E33E0F32EE2
:1031D00082E79FE09DA38CA342E6C42E4FE0D42E4D
:1031E00000E010E0BCC280911801882311F40C9417
:1031F000842A68E6862E61E0962E73E3E72E73E05C
:10320000F72E02E71FE0E2E6AE2EEFE0BE2EF2E878
:10321000CF2EF2E0DF2E712CD4018D914D010E9452
:10322000D834882319F10E94A534F6012081211198
:1032300004C020918602222341F0D8012D913D91B6
:103240004D915C910E94C5F70AC0B3E07B1639F03E
:10325000F50120813181428153810E94C4F7D70159
:103260006D937D938D939C9313970AC0F801808191
:103270009181A281B381F70180839183A283B3837B
:103280007394F4E0EF0EF11C0C5F1F4F24E0A20ECC
:10329000B11C3FEFC31AD30A44E07412BDCF86E4D9
:1032A0000E9421358823C9F00E94A53420E030E037
:1032B000A9010E9448F9181684F40E94A53420E060
:1032C00030E040E752E40E9448F860935201709366
:1032D000530180935401909355010E94853E0C94B4
:1032E000842A80E50E942135882329F00E946134D8
:1032F0006B017C0103C0C12CD12C760183E50E94B7
:103300002135882361F00E94A53420E030E04AE7AF
:1033100054E40E94C0F30E94C1F86B017C010E943A
:103320009B7080918F11811105C060E08DE791E065
:103330000E94D79D0E9400DAC60ED71EE81EF91E15
:103340000E9400DADC01CB018C199D09AE09BF098E
:10335000B7FD02C00C94842A0E94CC3BF1CF80912F
:10336000610F8770873011F00C94892A8FE40E94D6
:103370002135882319F00E94953403C08FE40E9400
:10338000D83481110C94842A0C94892A0E9401ADAE
:103390000C94842AC090720FD090730FE090740F39
:1033A000F090750F88E50E942135811109C020E059
:1033B00030E048E352E4C701B6010E94C4F702C0FE
:1033C0000E94A53468A379A38AA39BA3C090760F1B
:1033D000D090770FE090780FF090790F89E50E94F8
:1033E0002135811109C020E030E040EE50E4C701F2
:1033F000B6010E94C4F702C00E94A5349B01AC0133
:1034000069837A838B839C8368A179A18AA19BA11C
:103410000E94CB3A882311F40C94842A80E00E9405
:1034200083AC0E94963185E40E942135882321F0E7
:103430000E949534182F04C085E40E94D83411E00E
:1034400086E50E942135882321F00E947134262FC1
:1034500001C021E0412FBE016F5F7F4FCE018096FA
:103460000E9461D36B017C019B01AC010E94C6F9F3
:1034700081115FC088A099A0AAA0BBA020E030E085
:10348000A901C501B4010E945AF387FF05C027E1D5
:1034900037EB41E558EB04C027E137EB41E558E352
:1034A000C501B4010E94C5F7AB01BC018DEA91E0F2
:1034B0000E9421E489809A80AB80BC8020E030E0CB
:1034C000A901C501B4010E945AF387FF05C027E195
:1034D00037EB41E558EB04C027E137EB41E558E312
:1034E000C501B4010E94C5F7AB01BC0188EA91E0B7
:1034F0000E9421E420E030E0A901C701B6010E944A
:103500005AF387FF05C027E137EB41E558EB04C0CC
:1035100027E137EB41E558E3C701B6010E94C5F743
:10352000AB01BC0183EA91E00E9421E48AE00E94A1
:103530003E350E947D310E942EC10C94842A8091D8
:103540001801882311F40C94842A89E40E942135FF
:10355000082F882321F00E947134E62E01C0E12C4F
:103560008AE40E942135182F882321F00E947134AB
:10357000F62E01C0F12C002319F032E03E1528F0A0
:10358000112389F042E04F1570F4E5EBF1E08491EE
:103590008F010F5F1F4F882311F40C94842A0E941F
:1035A0003E35F801F4CF0E9434350023F1F020912C
:1035B0003C0930913D094E2D4203B001439F700DEF
:1035C00011248091C8089091C908680F791F072EAF
:1035D000000C880B990B0E9461F360933303709386
:1035E000340380933503909336031123F1F0209137
:1035F0003E0930913F094F2D4203B001439F700DAA
:1036000011248091CA089091CB08680F791F072E6A
:10361000000C880B990B0E9461F360933703709341
:1036200038038093390390933A0380E50E94213553
:103630008823E9F00E9495348823A9F10023D9F06A
:1036400020E030E048E352E46091330370913403AA
:1036500080913503909136030E94C5F76093330340
:1036600070933403809335039093360304C080E550
:103670000E94D834E1CF1123B1F020E030E040EED9
:1036800050E4609137037091380380913903909131
:103690003A030E94C5F76093370370933803809311
:1036A000390390933A0386E40E942135882309F474
:1036B00014CE0E94A5346B017C0120E030E0A9010A
:1036C0000E9448F918160CF008CE20E030E040E7E0
:1036D00052E4C701B601F7CD109286020C94842AF9
:1036E000209386020C94842A0E94A5342B013C016D
:1036F000133049F0F60120813181428153810E94CB
:10370000C4F72B013C01ACA1BDA12D913D914D9180
:103710005C91C301B2010E94C4F74B015C012DEB27
:1037200037E346E855EB0E9448F987FD20C02DEBB2
:1037300037E346E855E3C501B4010E945AF3181671
:10374000B4F01F5FB4E0EB0EF11CECA1FDA13496C8
:10375000FDA3ECA3F4E0CF0ED11C143039F1D1015C
:103760008D911D010E942135882359F3BDCF13305F
:1037700051F440927E0F50927F0F6092800F7092B2
:10378000810F01E0DECFA5019401F7016081718115
:10379000828193810E94C5F7D7016D937D938D93AC
:1037A0009C931397812F0E946633CBCF002309F49B
:1037B0004EC020E030E0A90160917E0F70917F0F34
:1037C0008091800F9091810F0E94C5F72091DA13AC
:1037D0003091DB134091DC135091DD130E94C0F354
:1037E0000E944DF960930F0A7093100A8093110A9A
:1037F0009093120A9091ED098091EE09981719F0B3
:103800000E943D7024C00E949B7080916F00982F91
:10381000927081FF05C080916F008D7F80936F0053
:1038200040910F0A5091100A6091110A7091120A8A
:10383000409366085093670860936808709369081E
:10384000992329F080916F00826080936F000E941D
:103850002EC10C94842A0E943AD70C94842A809119
:103860002513909126138637910509F4A8C70CF00B
:10387000BFC08C34910509F4A4C40CF050C0893148
:10388000910509F4ADC21CF58431910509F4BAC162
:103890007CF48131910509F42FC22CF4029708F4CD
:1038A000B4C10C94332A429709F40AC60C94332A03
:1038B0008631910509F46DC20CF467C28731910518
:1038C00009F46DC2489709F480C20C94332A8E31F2
:1038D000910509F43BC384F48B31910509F494C23A
:1038E0000CF484C28C31910509F426C34D9711F470
:1038F0000C94842A0C94332A8032910509F42AC34B
:103900000CF474C38A32910509F426C48B349105F2
:1039100011F00C94332A0E9471460C94842A8A3642
:10392000910509F484C5B4F58435910509F4C8C539
:10393000E4F48135910509F4AAC54CF48D34910560
:1039400011F00C94332A0E94AA460C94842A8235E2
:10395000910509F4B1C58335910511F00C94332A12
:1039600081E0809385020C94842A8C35910509F4BA
:10397000F7C534F48535910509F4D7C50C94332A7D
:103980008836910509F421C48936910509F4E7C404
:103990000C94332A8F36910509F455C484F48C367F
:1039A000910509F4A3C40CF460C58D36910509F4A2
:1039B00018C58E36910509F433C40C94332A823726
:1039C000910509F455C654F48037910509F492C461
:1039D0008137910509F496C40C94332A83379105F5
:1039E00009F40DC18537910509F4DAC60C94332A20
:1039F0008D3231E0930711F40C94D2270CF073C090
:103A00008B3C910511F40C941A258CF581399105A4
:103A100009F42FC784F48837910509F41FC70CF403
:103A20001AC78937910509F41FC78C38910509F425
:103A3000DCC40C94332A8E3B910509F4F4C434F4AD
:103A40008B39910509F4A6C40C94332A883C91055E
:103A500009F487C7893C910511F00C94332A78E664
:103A6000E72E71E0F72E0EEB13E10C9401258C3D4F
:103A7000910511F40C944E26B4F48D3C910511F48B
:103A80000C94AA2514F40C9435258E3C910511F460
:103A90000C942926833D910511F00C94332A0E9441
:103AA00019C00C94842A8831A1E09A0711F40C946F
:103AB000F32664F48D3D910511F40C945B26823E4F
:103AC000910511F40C94CA260C94332A8232E1E059
:103AD0009E0711F40C949E278C32914011F40C94A3
:103AE000A9270C94332A8C3A31E0930711F40C94F3
:103AF0004B26ECF58139A1E09A0711F40C94DF28EC
:103B0000BCF48F32E1E09E0711F40C94C62814F443
:103B10000C947228833621E0920709F46CC0803936
:103B2000914011F00C94332A0E949B700C94842ACB
:103B30008A3941E0940709F4E1C364F48239914081
:103B400011F00C94332A80E00E94C7320E942EC1EB
:103B50000C94842A843AE1E09E0711F40C94E52841
:103B6000853A914011F40C94E8280C94332A883F4C
:103B700031E0930711F40C948D29ECF4853FA1E01A
:103B80009A0711F40C947B294CF4843F914011F076
:103B90000C94332A0E94975E0C94842A863FF1E0AD
:103BA0009F0711F40C947E29873F914011F40C94E7
:103BB00081290C94332A8B3833E0930711F40C9449
:103BC000842A6CF48C30A2E09A0711F40C94B0298A
:103BD0008335934011F40C94B9290C94332A803A1C
:103BE000E3E09E0709F4F5C1873E934011F40C947D
:103BF0001E2A0C94332AEBE5FCE10C94CC28EFEA66
:103C0000F3E073C5EFEFF1E082C0A0902313B09012
:103C1000241380E50E942135882359F00E946134E5
:103C20006B017C0111E0672B682B692B31F410E0EC
:103C300004C010E0C12CD12C760183E50E9421350F
:103C4000882311F40C945E2C0E94A53420E030E00F
:103C50004AE754E40E94C0F30E94C1F86B017C0162
:103C600011110BC0672B682B692B39F4A114B10417
:103C700021F0D5018C91811102C010E001C011E04A
:103C80000E949B70112329F061E0C5010E94139EE0
:103C900005C060E084ED91E00E94D79D83E08093B1
:103CA000190381E08093630DC114D104E104F10490
:103CB000B1F00E9400DAC60ED71EE81EF91E0E945F
:103CC00000DADC01CB018C199D09AE09BF09B7FFF1
:103CD0000DC08091630D81110C94632C07C08091FD
:103CE000630D882319F00E94CC3BF9CF0E94D88045
:103CF0001092630D0C94842A60E087EE91E00E949C
:103D0000D79D5E985E9815985E980C94842A84914D
:103D10008F010F5F1F4F882321F00E943E35F8016D
:103D2000F6CF1092000D83EB9AE00E9421CA8BE13E
:103D3000E3EBFAE0DE01159601900D928A95E1F72A
:103D40008091B10A9091B20A9C838B8386EF91E0B7
:103D50009A83898340E050E0BE016F5F7F4F80E02F
:103D600090E00E946C8BCE0101960E944C3BE0EFEC
:103D7000F1E084918F010F5F1F4F882311F40C94A1
:103D8000842A0E943E35F801F4CF0E9405D20C949B
:103D9000842A10925B0A10925C0A0C94842AE091A7
:103DA0002313F09124138081882329F0803209F4B1
:103DB00010823196F8CF40E061E08091231390911A
:103DC00024130E94318E0C94842A80915C0A8823EB
:103DD00019F081E080935B0A0E9471460C94842A5A
:103DE00010925B0A0E9495460C94842A80915C0A8A
:103DF000882311F40C94842A83E50E9421358111D3
:103E00000C94672C0C94842A83E40E94D834882371
:103E100009F450C0EDE3F2E084918F010F5F1F4F72
:103E2000882321F00E943E35F801F6CF80914E0C98
:103E3000811103C0E0E1F2E012C0BE016F5F7F4F6D
:103E40008BE49CE00E94E8C88E010F5F1F4FF801D1
:103E500081918F01882349F10E943E35F8CF8491EA
:103E60008F010F5F1F4F882301F10E943E35F8013B
:103E7000F6CF85E9C82E82E0D82EE12CF12C20E087
:103E800080910C0990E00E2C02C0959587950A94BC
:103E9000E2F780FD08C24FEFE41AF40A82E0C80E90
:103EA000D11C95E0E916F10459F78AE00E943E35ED
:103EB0000C94842A80915C0A882339F080915B0AF3
:103EC000882319F0EAE1F2E003C0ECE2F2E028C056
:103ED00084918F010F5F1F4F882321F00E943E3590
:103EE000F801F6CF6091FC0C7091FD0C8091FE0CF6
:103EF0009091FF0C4AE00E94ED378FE20E943E3520
:103F00006091F80C7091F90C8091FA0C9091FB0C77
:103F10004AE00E94ED378AE00E943E350C94842AE4
:103F200084918F010F5F1F4F882311F40C94842A12
:103F30000E943E35F801F4CF40E060E08091231309
:103F4000909124130E94318E0C94842A0E948DB289
:103F50000C94842A80915B0A81110E949B7080914D
:103F60005C0A882311F40C94842A80E50E94213590
:103F7000882319F00E94953403C080E50E94D8344C
:103F8000182F482F61E080912313909124130E94F1
:103F9000318E83E50E942135882381F00E9471349F
:103FA000AB01BC014093FC0C5093FD0C6093FE0CE4
:103FB0007093FF0C8BE49CE00E94D9C780915C0A4F
:103FC000882319F081E080935B0A11110C94842AF4
:103FD00003CF809123139091241321E020935A0A58
:103FE00040E060E00E94318E0C94842A0E942246B8
:103FF0007B018C0120E831E541E050E00E9461F74F
:10400000C9016DE671E00E94DEF94B015C01C80157
:10401000B70120E13EE040E050E00E9461F7CA01B4
:10402000B90128E130E040E050E00E9461F7762ECF
:10403000672EC62ED72E9CE3292E312C412C512CD5
:10404000C801B701A20191010E9461F7F62EE72E87
:10405000CA01B901A20191010E9461F7CB018E0151
:104060000F5F1F4F8114910499F0EF92FF927F939D
:104070006F936F927F92BF92AF929F928F9284E7DD
:1040800092E09F938F931F930F930E94F2F213C0BD
:10409000A114B104B1F0EF92FF927F936F936F92EE
:1040A0007F92BF92AF9284E692E09F938F931F938B
:1040B0000F930E94F2F20FB6F894DEBF0FBECDBF91
:1040C00030C0CD2879F0EF92FF927F936F936F927B
:1040D0007F9288E592E09F938F931F930F930E94A6
:1040E000F2F2E9CF892B69F0EF92FF927F936F9301
:1040F00080E592E09F938F931F930F930E94F2F2BB
:10410000DACFEF92FF928CE492E09F938F931F930C
:104110000F930E94F2F20F900F900F900F900F905C
:104120000F9060E0C8010E94139EEAE8FCE18491D0
:104130007F012FEFE21AF20A882321F00E943E3518
:10414000F701F5CFB80188E892E00E9457E48AE0D1
:104150000E943E350C94842A83E50E9421358823F1
:1041600011F40C94842A0E948134E82E80E50E9488
:104170002135882311F40C94842A0E948134182F4D
:1041800087FF02C00C94842A89E40E942135882389
:1041900041F00E94953481110C94422DEFEEF4E031
:1041A0000BC089E40E94D834F6CF319635E0EC316B
:1041B000F30711F40C94422D84911813F6CF0C944C
:1041C0009D2C0E9495460C94842A88E690E00E94DB
:1041D0005A3881110C94842A80910C0983FF02C003
:1041E0000C94842A83E50E9421358823A9F00E943B
:1041F000A5340E94BAF8CB010E94729D0E94A5349A
:1042000020E030E04AEA52E40E945AF3181624F003
:104210000E94AA460E94D8800E9472E40C94842ACC
:104220008EE40E942135882311F40C94842A0E9484
:1042300071346093A6097093A7098093A80990939D
:10424000A9090C94842A83E50E94D834882359F064
:1042500083E50E942135882319F00E94813401C032
:1042600080E080930C09EAE8FCE184918F010F5F04
:104270001F4F811103C0E3EAF2E004C00E943E3503
:10428000F801F3CF84918F010F5F1F4F882321F036
:104290000E943E35F801F6CF80910C098111E9CDDD
:1042A000EFE9F2E018C0BB24B394B20E222319F058
:1042B0008CE20E943E35F60185919491FC01849137
:1042C0008F010F5F1F4F882321F00E943E35F801B8
:1042D000F6CF2B2DE0CD84918F010F5F1F4F8823E8
:1042E00009F4E3CD0E943E35F801F5CF10924D015F
:1042F0000C94842A8AEA92E00E94683B0E948DBB5B
:104300000C94842A83E50E942135811103C0EAE8D8
:10431000FCE10DC00E9481348D3320F480930A01AA
:104320000C94842A8CE380930A010C94842A84914F
:104330008F010F5F1F4F882321F00E943E35F80147
:10434000F6CF40910A0150E060E070E083EB92E02C
:104350000E94A74F8AE00E943E350C94842A89E689
:1043600090E00E945A38811111C0EAEBF2E084918A
:104370008F010F5F1F4F882321F00E943E35F80107
:10438000F6CF0E9431928AE00E943E3510921903C6
:104390000C94572D83E50E942135882311F40C9449
:1043A000842A0E948134182F8D3308F01CE3109367
:1043B00026030E9400DA6B017C01212F30E0A8EE79
:1043C000B3E00E94B5F7C60ED71EE81EF91EC092D4
:1043D0002203D0922303E0922403F09225030C944D
:1043E000842A0E94D0A80C94842A80910C0983FF0F
:1043F00002C00C94842A83E50E942135882311F49D
:104400000C94842A0E94A5340E94BAF86E36710575
:1044100014F06EE670E07093EB116093EA110E9465
:1044200070940C94842A0E94C4C40C94842A80E55D
:104430000E942135811106C083E50E942135882321
:1044400061F006C00E94813481110C94842AF4CF5B
:104450000E9471346F3F710510F06FEF70E0709340
:10446000ED116093EC110C94842A80E50E942135B3
:10447000811106C01092ED111092EC110C94842A57
:104480000E947134672B11F00C94842AF3CF0E94A0
:10449000BC940E94D8701092ED111092EC1168EE4D
:1044A00073E080E090E00E94D79C60E08DEB92E0AA
:1044B0000E94D79D0C94842A109285020C94842A21
:1044C00083E50E9421358823A1F00E94A53420E0D5
:1044D00030E04AE754E40E94C0F30E94C1F86093C0
:1044E0000B0170930C0180930D0190930E010C94BD
:1044F000842A88E50E94D83481110C94782C89E5AF
:104500000E94D83481110C94782C8AE50E94D8340A
:1045100081110C94782C85E40E94D83481110C947C
:10452000782C0E94D8700C94842A83E50E94D83499
:10453000882311F40C94842A0E94A53420E030E0F2
:104540004AE754E40E94C0F30E94C1F860931E033E
:1045500070931F0380932003909321030C94842A6B
:1045600018E6C12E11E0D12E0EECE02E03E1F02E64
:1045700010E0D6018D916D010E94D834882309F492
:104580006DC0133009F063C00E94A5344B015C017B
:1045900020E030E040EA51E40E945AF387FF4EC029
:1045A000A50194016091DA137091DB138091DC1303
:1045B0009091DD130E9448F82B013C019B01AC0156
:1045C0006091DF087091E0088091E1089091E20825
:1045D0000E94C0F36093DF087093E0088093E108C5
:1045E0009093E208A30192016091FB087091FC088E
:1045F0008091FD089091FE080E94C0F36093FB0833
:104600007093FC088093FD089093FE086091BA13A4
:104610007091BB138091BC139091BD130E945FF306
:10462000A30192010E94C0F30E94C1F86093BA13E3
:104630007093BB138093BC139093BD138092DA13D5
:104640009092DB13A092DC13B092DD1307C00E949E
:10465000A534F70160837183828393831F5FF4E045
:10466000EF0EF11C143009F084CF0E94D7E54CC73F
:104670000E949B7083E50E942135882309F4E7C8D6
:104680000E9471346230710509F0E1C80E9416433E
:104690008BE50E943E3560910D0370910E03809171
:1046A0000F039091100342E00E94B838409111032B
:1046B0005091120360911303709114038DEC92E0FA
:1046C0000E9421E440911503509116036091170355
:1046D000709118038AEC92E00E9421E48DE50E941B
:1046E0003E358AE00E943E350FC784918F010F5FEF
:1046F0001F4F882321F00E943E35F801F6CF60E07D
:104700008FE993E00E94F7C061E088E993E00E949E
:10471000F7C061E08DE893E00E94F7C061E08DE7AB
:1047200093E00E94F7C060E084E793E00E94F7C046
:1047300061E08AE693E00E94F7C061E080E693E0E2
:104740000E94F7C061E088E593E00E94F7C061E055
:104750008AE493E00E94F7C060E08CE393E00E945B
:10476000F7C060E08DE293E00E94F7C060E08FE167
:1047700093E00E94F7C060E089E093E00E94F7C0F8
:1047800060E088EF92E00E94F7C060E083EE92E084
:104790000E94F7C061E080ED92E00E94F7C0B4C6CD
:1047A0008091231390912413DC012C91222321F07A
:1047B00060E00E94139EA8C60E94D880A5C6009102
:1047C00023131091241383E0D12C40E08150E1F0B9
:1047D000F8019081292F2B7F2134C1F721812133CA
:1047E000A9F7913421F0953421F441E002C0DD2491
:1047F000D39498012E5F3F4F89012F5F3F4FD8011F
:104800009C919032C9F3E2CF442369F0EAE8FCE1DD
:1048100084917F01BFEFEB1AFB0A882321F00E94ED
:104820003E35F701F5CFDD2069F0E9E7F4E084914A
:104830007F012FEFE21AF20A882321F00E943E3511
:10484000F701F5CFD8018D918D01882309F42DCB87
:104850000E943E35F7CF0E949AB656C681E08093FB
:10486000CA0D8093C90D50C61092CA0D1092C90D81
:104870004BC683E50E942135882319F00E947134CC
:1048800002C060E070E08B01112702301105D4F006
:10489000EBE5FCE184918F010F5F1F4F811103C095
:1048A000EDE7F4E004C00E943E35F801F3CF8491B7
:1048B0008F010F5F1F4F882309F426C60E943E35E3
:1048C000F801F5CF88E40E9421358823A9F00E94E1
:1048D00071346A3A71053CF06530B1E07B072CF029
:1048E00064E071E002C06AEA70E0F801EE0FFF1FB9
:1048F000E05DF64F7183608386E40E942135882352
:10490000A9F00E947134F801EE0FFF1FE85CF64F2A
:10491000718360836F3F710519F014F06FEF70E0E1
:1049200077FF02C060E070E07183608382E40E94E0
:104930002135882309F4E8C50E947134653071057A
:1049400034F06F3671052CF06EE670E002C065E061
:1049500070E0000F111FF801EC5CF64F718360836B
:10496000D3C588EC90E00E945A388111CDC584E40B
:104970000E94D834882309F441C00E94A5346B01F9
:104980007C0111E020E030E0A9010E945AF381117E
:1049900001C010E01093C30820E030E0A901C70176
:1049A000B6010E945AF3882349F10E94A534E09190
:1049B0000B0D24E0E29FF0011124E154F74F6083D6
:1049C00071838283938320E030E0A9016091BF0866
:1049D0007091C0088091C1089091C2080E945AF35A
:1049E00081110CC080E090E0A0EEBFE38093BF088F
:1049F0009093C008A093C108B093C2080E9433B33B
:104A000083C5D7018D917D010E94D834882349F058
:104A10000E94A5340E94C1F8F801608371838283EB
:104A200093830C5F1F4FF3E10E3C1F0751F70E9469
:104A3000A2E46AC568E6E62E61E0F62E0FEE18E005
:104A4000D7018D917D010E94D834882339F00E94CE
:104A5000A534F80160837183828393830C5F1F4FB9
:104A6000F8E00F3F1F0761F74FC583E50E9421352E
:104A70008823A1F00E94A5346093E7087093E808AA
:104A80008093E9089093EA086093E3087093E40840
:104A90008093E5089093E60810E001C011E080E5FE
:104AA0000E942135882359F00E94A5346093E708BD
:104AB0007093E8088093E9089093EA0810E082E593
:104AC0000E942135882359F00E94A5346093EB0899
:104AD0007093EC088093ED089093EE0810E084E565
:104AE0000E942135882359F00E94A5346093E30881
:104AF0007093E4088093E5089093E60805C51123B8
:104B000009F402C54091E7085091E8086091E9086E
:104B10007091EA0885EA94E00E9421E44091EB0854
:104B20005091EC086091ED087091EE0882EA94E0F3
:104B30000E9421E44091E3085091E4086091E50867
:104B40007091E6088FE994E00E9421E48AE00E94D7
:104B50003E35DAC481E50E94D834882351F00E94A2
:104B600061346093FF08709300098093010990936A
:104B7000020983E50E94D834882351F00E94A534AD
:104B800060930709709308098093090990930A09B3
:104B900084E50E94D834882351F00E94A5346093A4
:104BA000030970930409809305099093060988E529
:104BB0000E94D834882351F00E94A5346093D30812
:104BC0007093D4088093D5089093D60889E50E9405
:104BD000D834882351F00E94A5346093D70870938D
:104BE000D8088093D9089093DA088AE50E94D834CF
:104BF0008823F1F00E94A5346093DB087093DC08F1
:104C00008093DD089093DE082DEC3CEC4CEC5DE3EA
:104C10000E945AF3181664F0E5EBF4E084918F01DA
:104C20000F5F1F4F882321F00E943E35F801F6CF19
:104C300085E40E94D834882309F466C40E94A53410
:104C40006093DF087093E0088093E1089093E20896
:104C50005BC448E6C42E41E0D42E5CECE52E5DE05A
:104C6000F52E10E0D6018D916D010E94D834882375
:104C700051F00E94A534F70160837183828393838E
:104C8000812F0E9466331F5FF4E0EF0EF11C13309A
:104C900049F70C94271C0E94F8C136C483E50E9492
:104CA0002135882309F430C40E94713470932201A5
:104CB0006093210129C48DED90E00E945A38811142
:104CC00023C483E50E942135811103C0EAE8FCE199
:104CD0003BC000910B0D10E00E947134000F111FBA
:104CE000F801E15EFE4F7183608380910B0D90E0CF
:104CF0008C01000F111F000F111F9801255E3E4F00
:104D00007901880F991FFC01E15EFE4F608171817E
:104D1000072E000C880B990B0E9461F32AE037EDF7
:104D200043E25CE30E94C0F3F801E95DF64F2081A5
:104D30003181428153810E94C0F3D7016D937D93ED
:104D40008D939C931397E0C384918F010F5F1F4F46
:104D5000882321F00E943E35F801F6CF85E40E94B9
:104D60003E3580910B0D805D0E943E35E0910B0D2C
:104D7000F0E0EE0FFF1FE15EFE4F6081718187EE74
:104D800094E00E943EE485E20E943E358AE00E9463
:104D90003E35BAC380E50E94D834882309F4B4C3F1
:104DA0000E9471346B017C0183E50E9421358823C8
:104DB00021F00E9471348B0102C00FEF1FEFC80178
:104DC0000196039708F0A0C3D7FC9EC38C2DEFEE8D
:104DD000F4E09491891709F4B0C53196B5E0EC314F
:104DE000FB07B9F7ADC580E50E94D834882309F4E4
:104DF0008BC30E9471346B017C018B01672B19F00E
:104E0000EBE5FCE17FC083E50E94D834811103C04B
:104E1000EAE8FCE107C00E94713488E39AE00E944E
:104E2000344E72C384917F012FEFE21AF20A882375
:104E300021F00E943E35F701F5CF60E070E085E398
:104E400095E00E943EE480913A0A28E532E069014B
:104E5000C81AD10887FDD394CC0CDD1CCC0CDD1C0A
:104E60000D2C000CEE08FF088091390A28E830E08C
:104E70004901881A910887FD9394880C991C880C25
:104E8000991C092C000CAA08BB088091380A8F3F96
:104E9000B9F090E0FC01EE0FFF1F8E0F9F1FFC0189
:104EA000ED5EF54F0181128173E0000F111F7A95BD
:104EB000E1F7E4E016950795EA95E1F70E5F1F4FDD
:104EC00098012F5F3F4FC901330FAA0BBB0B9C0109
:104ED000AD01281939094A095B09A4EBB0E00E9429
:104EE000A2F7A7019601281939094A095B090E940E
:104EF00083F7B90182E395E00E943EE48AE00E94D4
:104F00003E3502C384918F010F5F1F4F882321F02C
:104F10000E943E35F801F6CFB6018BE295E00E9483
:104F20003EE4ECE1F5E084918F010F5F1F4F882391
:104F300009F4EAC20E943E35F801F5CF8AE50E94E5
:104F40002135811125C583E50E942135811120C5B8
:104F5000DBC283E50E942135882319F00E94713459
:104F600002C064E071E079A368A380E50E94213566
:104F7000882339F00E947134693833E1730730F4C3
:104F800002C068EE73E07A83698304C088E893E125
:104F90009A838983BE01605E7F4FCE0101960E9495
:104FA000BED0B2C285E40E942135811110C080E5D7
:104FB0000E94D834882391F00E94A5346093790D23
:104FC00070937A0D80937B0D90937C0D07C00E94A7
:104FD0008134882361F3EBE5FCE171C089E40E9430
:104FE000D834882381F00E94A5342CEA35EC47E2BE
:104FF0005EE30E94C0F36093810D7093820D8093F5
:10500000830D9093840D84E40E94D834882381F02A
:105010000E94A5342CEA35EC47E25EE30E9448F892
:1050200060937D0D70937E0D80937F0D9093800D26
:10503000EAE8FCE184918F010F5F1F4F882321F084
:105040000E943E35F801F6CF4091790D50917A0DCE
:1050500060917B0D70917C0D86E595E00E9421E4C6
:105060002CEA35EC47E25EE36091810D7091820D90
:105070008091830D9091840D0E9448F8AB01BC0192
:1050800082E595E00E9421E42CEA35EC47E25EE3FC
:1050900060917D0D70917E0D80917F0D9091800DBE
:1050A0000E94C0F3AB01BC018EE495E00E9421E4B4
:1050B0008AE00E943E3528C20E943E35F801849164
:1050C0008F010F5F1F4F8111F7CFEAE5F5E0849163
:1050D0008F010F5F1F4F882309F416C20E943E35CF
:1050E000F801F5CF83E50E94D834182F882371F09A
:1050F0000E94A5340E94BAF870931A0160931901B6
:1051000021E0672B09F020E020930B0980E50E9445
:10511000D834882359F02091190130911A01232B9A
:1051200011F00E94953480930B09EEC11111ECC16E
:10513000EAE8FCE184918F010F5F1F4F882321F083
:105140000E943E35F801F6CF80910B09882319F0B3
:1051500062E372E002C065E372E081E895E00E94DC
:1051600057E46091190170911A0180E795E00E945F
:105170003EE4ECE6F5E084918F010F5F1F4F88233A
:1051800009F4C2C10E943E35F801F5CF0E94CABBA6
:10519000BBC10E943E35F80184918F010F5F1F4F04
:1051A0008111F7CFE4E9F5E084918F010F5F1F4F84
:1051B000882309F4A9C10E943E35F801F5CF81E0AA
:1051C0000E94C7320E942EC19FC10E94FEC29CC194
:1051D00089E40E942135882321F00E947134162F22
:1051E00001C01FEF8AE40E942135882321F00E942C
:1051F0007134062F01C00FEF8AE50E94D834F82ED3
:10520000811105C081E50E94D834D82E01C0D12C6F
:1052100017FD06C007FD04C0F1101CC0D1101AC054
:10522000EBE5FCE184918F010F5F1F4F811103C0FB
:10523000E2ECF5E004C00E943E35F801F3CF849122
:105240008F010F5F1F4F882309F45EC10E943E3516
:10525000F801F5CF133010F40330D0F0EBE5FCE1AA
:1052600084918F010F5F1F4F811103C0E3EAF5E0C6
:1052700004C00E943E35F801F3CF84918F010F5F87
:105280001F4F882309F440C10E943E35F801F5CF35
:10529000E12E110FFF08002E000C110B0E94A53407
:1052A000D701AA0FBB1FDD2081F0FD01EE0DFF1D10
:1052B000E00FF11FEE0FFF1FEE0FFF1FE257F24F3F
:1052C000208131814281538103C020E030E0A90177
:1052D000EA0EFB1E0E0D1F1D000F111F000F111FE8
:1052E0000257124F0E94C5F7D8016D937D938D939D
:1052F0009C93139709C10E94895E06C10E94AC5716
:1053000003C183E50E94D834882321F00E9495349C
:1053100091E089270E94F1B6F7C02093CD080E9442
:10532000CD581092CD08882309F4EEC0EAE8FCE1DC
:1053300084918F010F5F1F4F811103C0E2EEF5E0F2
:1053400004C00E943E35F801F3CF84918F010F5FB6
:105350001F4F882309F4D8C00E943E35F801F5CFCD
:1053600080915B0A882309F4CFC081E080935E0AB4
:10537000CBC08AE50E942135811103C0EAE8FCE137
:105380003BC00E94A5346B017C0120E030E040EA84
:1053900051EC0E9448F987FD0AC020E030E040EA65
:1053A00051E4C701B6010E945AF318161CF4EBE54C
:1053B000FCE10CC0C0926E0FD0926F0FE092700FA4
:1053C000F092710FA1C00E943E35F80184918F01C7
:1053D0000F5F1F4F8111F7CFEDEEF5E084918F0144
:1053E0000F5F1F4F882309F48FC00E943E35F801DC
:1053F000F5CF0E943E35F80184918F010F5F1F4F5A
:105400008111F7CFEDE0F6E084918F010F5F1F4F20
:10541000882321F00E943E35F801F6CF40916E0FAF
:1054200050916F0F6091700F7091710F8AE096E04C
:105430000E9421E48AE00E943E3566C081E08093AC
:1054400018011092D21183E50E942135882339F08A
:105450000E949534811158C00E9475E255C083E5C1
:105460000E94D834F7CF0E943AD74EC0F09025134F
:105470000E949B701091440980E00E9483ACFF2041
:1054800029F1EAE8FCE184918F010F5F1F4F882327
:1054900021F00E943E35F801F6CF84E50E943E35AA
:1054A0006F2D70E080E090E04AE00E94ED3780E2EE
:1054B0000E943E35EEE2F6E084918F010F5F1F4FB0
:1054C000882311F10E943E35F801F6CF1092500D5D
:1054D000812F0E9483ACEAE8FCE184918F010F5F89
:1054E0001F4F882321F00E943E35F801F6CF6091CE
:1054F000500D70E08CE196E00E943EE48AE00E944C
:105500003E3502C00E943AD7109219030E944F45BF
:10551000CEC20E949B7080E00E9483AC84EF91E039
:10552000A0E0B0E089839A83AB83BC83BE016F5F48
:105530007F4F80EA0E9429310E9447310E949631B4
:1055400011E01093CA0D88E50E94D834282E89E511
:105550000E94D834382E8AE50E94D834A82E211013
:1055600005C0311005C0BA2CB12605C0311002C0EB
:10557000B12C01C0BA2C0E94343582E50E9421353D
:10558000882361F00E94A5346B017C0120E030E0AB
:10559000A9010E945AF3882379F106C0C12CD12CAD
:1055A00050EAE52E50E4F52EB11005C0211003C0DD
:1055B000332009F411C1C0923B03D0923C03E09226
:1055C0003D03F0923E03A701960160917A0F70911E
:1055D0007B0F80917C0F90917D0F0E945AF387FF83
:1055E0000BC019821A821B821C82BE016F5F7F4F23
:1055F0008BE393E00E94A832B1100DC0211003C0CC
:105600003110E5C0E9C0311006C080E00E945E396B
:10561000BB20B1F3DCC01092760F1092770F10927E
:10562000780F1092790F1092720F1092730F1092E0
:10563000740F1092750F0E941A34EAE2F9E0849117
:1056400088ABEEE1F9E0C590D590E590F490E2E208
:10565000F9E04590559065907490A7019601C301BB
:10566000B2010E945AF387FF05C0A7019601C3014A
:10567000B20104C0A3019201C701B6010E9448F81B
:105680006CA77DA78EA79FA7E1EEF8E08591959185
:10569000A591B4918CA39DA3AEA3BFA3EDEDF8E0BB
:1056A00085919591A591B49188A799A7AAA7BBA721
:1056B0009C01AD016CA17DA18EA19FA10E9448F922
:1056C00018162CF498A409A51AA58BA404C09CA0B4
:1056D0000DA11EA18FA02CA53DA54EA55FA5CA01B9
:1056E000B9010E94C0F320E030E040E85FE30E948F
:1056F000C5F70E9486F9292D302F412F582D0E9481
:10570000C0F369837A838B839C83EBE2F9E0149185
:1057100080917A0F90917B0FA0917C0FB0917D0FBB
:105720008CA39DA3AEA3BFA320E030E040EC5FE3D9
:10573000C301B2010E94C0F32B013C01612F110F84
:10574000770B880B990B0E9461F39B01AC01C3019D
:10575000B2010E94C0F32B013C0120E030E040EC9C
:105760005FE3C701B6010E94C0F36B017C01A8A9E9
:105770006A2FAA0F770B880B990B0E9461F39B018C
:10578000AC01C701B6010E94C0F3FE0131966F0162
:10579000ECA0FDA00EA11FA1A30192010E94B531B2
:1057A0000E94E6B61092760F1092770F1092780F43
:1057B0001092790F1092720F1092730F1092740F53
:1057C0001092750FB11021CF21101FCF19CF81E09A
:1057D0000E945E39B11003C0AA2009F461C0809113
:1057E000610F83708330F9F060E085E991E00E94F9
:1057F000D79DEAE8FCE184918F010F5F1F4F811173
:1058000003C0E6E8F1E004C00E943E35F801F3CFA2
:1058100084918F010F5F1F4F882309F441C00E94BC
:105820003E35F801F5CF0E941A34E0907A0FF090DF
:105830007B0F00917C0F10917D0FE0923B03F09263
:105840003C0300933D0310933E0380E090E0A3E20D
:10585000B3E48093330390933403A0933503B09360
:10586000360380E090E0A8EFB2E480933703909392
:105870003803A0933903B0933A0319821A821B822A
:105880001C829E012F5F3F4F69019C01AD0160E0CA
:1058900070E083E293E40E94B53182E00E945E39B9
:1058A0000E941A348091C90D8093CA0D0E947D31E7
:1058B00083E0809356010E942EC126CE11110C94D4
:1058C0003D1E0C94361E0E94CC3B0C945F1E0E9421
:1058D0007134AB01BC014093FC0C5093FD0C609300
:1058E000FE0C7093FF0C8BE49CE00E94D9C70CCE99
:1058F0000E949B7088E50E94D834882331F05E9A1C
:105900008091610F8E7F8093610F89E50E94D8346A
:10591000882331F05E9A8091610F8D7F8093610FB3
:105920008AE50E94D834882309F4EECD159A809137
:10593000610F8B7F8093610FE7CD0E94C8E8E4CDB3
:105940000E949B70BC2C60E08C2D0E9418D90F3FE8
:10595000BFEF1B0759F48C2D0E94C0D831E020E026
:10596000892B09F030E0032F122F05C001301105FB
:1059700061F401E010E08B2D0E94C0D880179107E0
:1059800009F4C2CD0E94CC3BF6CF00E010E0F3CF8B
:105990000E94A53420E030E040E050EC0E945AF331
:1059A00087FD15C00E94A53420E030E040E050E4BF
:1059B0000E9448F918162CF00E94A5346B017C0156
:1059C0000BC0C12CD12CE12C50E4F52E05C0C12C0C
:1059D000D12CE12C40ECF42E8091610F82FF18C095
:1059E00000911509109116092091D6133091D71303
:1059F0004091D8135091D913C701B6010E94C0F34A
:105A00000E94BAF8600F711F709316096093150910
:105A100080E50E94D834882329F00E949534882399
:105A200009F472CDA701960160916E0F70916F0F0E
:105A30008091700F9091710F0E94C5F760936E0F67
:105A400070936F0F8093700F9093710FEAE8FCE1F1
:105A500084918F010F5F1F4F882321F00E943E35F4
:105A6000F801F6CF40916E0F50916F0F6091700F5B
:105A70007091710F8DE395E00E9421E48AE00E940D
:105A80003E3542CD61E0812F0E9418D96E2D812FC5
:105A90000E94E9D8F12CB701812F0E9454D914300B
:105AA00009F032CDF092ED11E092EC112DCDE0969F
:105AB0000FB6F894DEBF0FBECDBFDF91CF911F911F
:105AC0000F91FF90EF90DF90CF90BF90AF909F909D
:105AD0008F907F906F905F904F903F902F900895A0
